:100000006F00E077000000003201000034010000C2
:1000100000000000000000000000000000000000E0
:1000200000000000000000000000000000000000D0
:100030007C070000000000007C07000000000000BA
:100040007C0700007C0700007C0700007C070000A4
:100050007C0700007C0700007C0700007C07000094
:100060007C0700007C0700007C0700007C07000084
:100070007C0700007C0700007C0700007C07000074
:100080007C0700007C0700007C0700007C07000064
:100090007C0700007C0700007C07000000000000D7
:1000A000511126C022C206C4828282441244A24058
:1000B00031018280634E050263C305042E86AA8542
:1000C0007D5515C285466378B6006356C0000606A6
:1000D0008606E36CB6FE014563E4C500918D558D3F
:1000E00085820582F5FA82808682C93F2E858282CA
:1000F0003305A04063D70500B305B040C1B7B305D1
:10010000B0408682653F3305A0408282868263C705
:100110000500634905005D372E858282B305B04036
:10012000E35B05FE3305A040513F3305B0408282BA
:10013000000001A0B707EFBE37E700E0938707088C
:100140003CC701A0EFF2DFF5B707002003A50701C8
:10015000B7450F00938505249537B707002023AED8
:10016000A702B7F700E023A0070023A407007D57EC
:1001700098CB154798C315BFEFF29FF2B7F700E091
:100180008847B707002083A5C7030D3F39BF8567A0
:10019000938787271377F5003E9711811823AA9735
:1001A00088231207598D1375F50F8280EFF25FEFE8
:1001B0000565011185454105EF00E07B8565314608
:1001C000938505240A85EF00907A8A8537150140CA
:1001D000EF0080664144A1478A85371501407C8045
:1001E00022C4EF006065B7C7040102CA02CC3EC654
:1001F0006C009307002037350140FC83E08402C87F
:10020000231E0100EF000079854537350140EF00DE
:10021000807B056159BDEFF2BFE885472A8463946E
:10022000F500B5372A84894537350140EF00807BDA
:100230007DD993150401C18137350140EF00407A23
:100240009305000837350140EF00C0798547E30981
:10025000F5FEA1BDEFF2DFE4A14537150140EF0047
:100260006065A14537150140812D81B5EFF25FE34F
:10027000130141FDA526054591255929EF0070067A
:10028000D135716513050520EF00F0080537B70774
:10029000002083A507013715000013058525EF0011
:1002A000F06A7123AA853715000013058526EF0033
:1002B000F06989679387F770014402C002C202C4E3
:1002C00002C602C802CA02CC814402D202CE02D0C7
:1002D0003ED45D3582572257B307F5406375F7006A
:1002E00085472AD03ECE92571307F031B307F54029
:1002F0006374F7002AD28544F247D9CFE2478507D5
:1003000093F7F70F3ECC6247A54763F8E700D24763
:1003100002CC850793F7F70F3ECA5247A54763F80B
:10032000E700C24702CA850793F7F70F3EC8424766
:10033000A54763F8E700B24702C8850793F7F70FB0
:100340003EC63247A54763F8E700A24702C68507C5
:1003500093F7F70F3EC42247A54763F8E70092479B
:1003600002C4850793F7F70F3EC21247A54763F80B
:10037000E700824702C2850793F7F70F3EC00247A6
:10038000A54763F6E70005041374F40F02C0A54700
:1003900002CE63F3870001448DDCB704002083A7FD
:1003A00084039384840385EB85450545AD358545F8
:1003B00001459535624785679387C724BA97882397
:1003C0008145913D81450145B93581450145A135BD
:1003D000814501458935984085476317F7044247B1
:1003E000D24785450145D98F3247D98F2247D98FCA
:1003F0001247D98F0247D98FC18F91C30945213D3B
:1004000085450145093D524785679387C724BA97BB
:1004100088238145093581450145F53B81450145E5
:10042000DD3B81450145C53B984089476315F7048D
:100430003247C24785450145D98F2247D98F124798
:10044000D98F0247D98FC18F91C31145E9338545B3
:100450000145D133424785679387C724BA978823DC
:100460008145553B814501457D33814501456533D6
:10047000814501454D3398408D476313F70422476A
:10048000B24785450145D98F1247D98F0247D98F89
:10049000C18F91C32145413385450145AD3B32476D
:1004A00085679387C724BA9788238145AD338145F3
:1004B0000145953381450145B93B81450145A13B46
:1004C000984091476311F7041247A24785450145BB
:1004D000D98F0247D98FC18F91C341452D3B8545A7
:1004E0000145153B814501453D332247856793878B
:1004F000C724BA9788238145393B81450145213B73
:1005000081450145093B984095476310F7049247A0
:10051000024785450145D98FC18F99C31305000254
:10052000DD3985450145C53981450145ED31124724
:1005300085679387C724BA9788238145E939814520
:100540000145D13981450145F93198409947631EEC
:10055000F702824785450145C18F99C31305000401
:100560005D39854501454539814501456D31024774
:1005700085679387C724BA97882381456939814560
:100580000145513981450145793198409D47631BAB
:10059000F7028545014519C013050008AD398545A9
:1005A0000145953981450145BD3185679387C7244C
:1005B000A29788238145853181450145A939814527
:1005C000014591399C401D4785076346F7009CC053
:1005D00051318144FDB923A00400DDBFEFF25FACCF
:1005E000371402401C403707FFF8611193E71700EA
:1005F0001CC05C404145F98F5CC01C403707F7FECA
:100600007D17F98F1CC01C403707FCFF7D17F98F41
:100610001CC05C4041777D17F98F5CC0B7079F0015
:100620001CC445241C4C3706020093E707021CCC6F
:10063000B717014003A70740938607401377F7F0E9
:1006400023A0E74003A707401367070823A0E7405C
:1006500089479CCA02C002C21C4C37070140A166F0
:1006600093E717001CCC5C43D58F5CC31C404167EB
:10067000B7160240D98F1CC009679C42F18F3EC259
:10068000824785073EC0924781E78247E397E7FEAE
:10069000B71702409C431397E70063590706854745
:1006A0003EC2124785476310F706B72702409843BA
:1006B000C176FD16719B98C398431367170098C3C2
:1006C000B7170240D843D8C3D843758FD8C3D8438F
:1006D000C166558FD8C39843B7060001558F98C39C
:1006E000984393166700E3DD06FED843B716024031
:1006F000719BD8C3D84313672700D8C32147DC4276
:10070000B18BE39EE7FE21016FF03F9A02C251BF19
:10071000EFF21F99371702405C43370400209146DF
:10072000B18B130404016385D700A1466382D7040B
:10073000B7376E01938707601CC0B7160240DC42D2
:100740000840918313F7F700B7070020938707004D
:10075000BA978C23DC4293F5F50F93F707083357CC
:10076000B50081E7EFF09F952A8718C06FF0FF93DF
:100770005C43B777DC02938707C07DBF01A0970178
:1007800000209381A10B138181FC1305000A9705BA
:10079000002093852587170600201306A68663FA96
:1007A000C5008322050023A0550011059105E3EA49
:1007B000C5FE171500001305E5AD970500209385CC
:1007C0006584170600201306668763FAC500832236
:1007D000050023A0550011059105E3EAC5FE1705A4
:1007E00000201305A585938501816377B50023203B
:1007F00005001105E36DB5FEB72200009382028863
:10080000739002308D427390428097F2FFFF938283
:10081000627F93E2320073905230EFF03FDC970238
:1008200000009382E2A47390123473002030B7F773
:10083000FF1F03A5477C8280944593F7060193F23E
:10084000F60081C7DC41B3E2F20083D3050093F7E1
:10085000F30FA5C303230500611122C226C08147FF
:10086000130480029304800405473316F70033F71E
:10087000C3006312E602939527003D473317B70084
:100880001347F7FF33736700B395B20033E3650096
:10089000639D860050C985072147E397E7FC124412
:1008A00023206500824421018280E39696FE10C9D0
:1008B000DDB782800CC982804CC9828023A4A180CC
:1008C0008280371702401C430E0593F777F05D8D49
:1008D00008C38280EFF2CFFC371702405C43914699
:1008E0002A84B18B6385D700A1466380D708B737C8
:1008F0006E01938707601CC0B7160240DC429183EB
:1009000013F7F700B707002093878702BA978C2365
:10091000DC42184093F5F50F93F707083355B700FD
:1009200081E73A85EFF08FF948C008C448C4B7178B
:100930000240DC438D46AD83FD8B13D737008A0719
:10094000F18BD98F13F6370113F7370063F4C60024
:10095000138747FFB707002093874701BA978C2377
:10096000EFF0CFF508C86FF04FF45C43B777DC02C7
:10097000938707C049B799C5371702401C4F5D8D53
:1009800008CF8280B7170240984F1345F5FF798D45
:1009900088CF82801A218D6793870704B6217D8FC7
:1009A0009E21D58FD621D58FF621D58F9625D58F2F
:1009B000B625D58FD625D58FF625D58FD98F1EA1F3
:1009C0009E291EA982801E2189C593E707041EA1C6
:1009D0008280C207C18393F7F7FBC207C183C5BFFB
:1009E0004EA582800A256D8D3335A0008280EFF2FE
:1009F0002FEB1629F577FD17F58FF621DA25211152
:100A0000D58F1EA95625FD779387379FF58FD62161
:100A10002A842EC0D58F9625D58FB625D58F5EA575
:100A20005E29C207C18393F7F7CF5D8F5AA94800AB
:100A30005535B74701409387078082456312F40616
:100A4000C2475A24139517003E9542070E05418769
:100A50003E958C41635807048605EFF02FE6930519
:100A600040062AC0EFF08FE58247931445009305B6
:100A700040063E85EFF04FE75E24C207C18763D58D
:100A800007020E059305400613052503EFF00FE35B
:100A90001D89C98CC204C18006A461016FF0EFE01A
:100AA000B24745B78A0555BF1205930540061305A1
:100AB0002503EFF0AFE03D89E9BF91C55E250967E9
:100AC000D98F5EA582805A25F977FD17F98FD5BF9A
:100AD00093F5F51F4EA182800A216D8D3335A0005C
:100AE0008280EFF2EFDBB707002003A50701B715FF
:100AF0007A0093850520EFF06FDC1375F50F2387DF
:100B0000A18093175500898F8A073E950E0523967D
:100B1000A1806FF08FD9EFF2AFD82A84116511113F
:100B2000854513050502813D930700027C8037153A
:100B300001408D473EC28A85E147130505403EC40A
:100B4000E53922C637440140B70708006C00130599
:100B500004803ECA02C8231C0100513D854513058F
:100B60000480A13F71016FF04FD4EFF26FD3711188
:100B7000AE840144635DC402B74701401387078018
:100B80003A859305000432C0813FB747014013877F
:100B90000780024675D533878400830507001385D7
:100BA00007800504C205C18125370246E1B73285B9
:100BB00011016FF08FCF411106C62EC00DCD184127
:100BC000AA8705C358417D5511CB8546631BD700C5
:100BD00098472300070023A207000545B2404101C2
:100BE00082809847824614A39847050798C7D84340
:100BF0007D17D8C3DDB705468A85853FF9BF01114A
:100C000022CC2EC206CE26CA2A8481479305000232
:100C1000634506029245BE95838505008DE563D840
:100C2000C70263D4E702198E1305000293F526006C
:100C30002AC089C501E7930500032EC0858A814437
:100C400095EAB2840DA08507F1B71D8EF1BF01466C
:100C5000E1BF824522853AC832C63EC4A93FA247B9
:100C600032464247FD14E34690FEB28463530600C9
:100C70008144058E63C7E702A68792463387974073
:100C800036978305070095EDB2846344900463535F
:100C900006000146F2406244D2443305F600056185
:100CA00082801D8FBA8793050003228532C83EC615
:100CB0003AC41137B24722474246FD17EDF7BA94BE
:100CC00065BF228532C63EC4FD35A2473246850740
:100CD0006DB78245228532C43EC2F13DFD142246E5
:100CE000924765B7397106DE22DC26DA3EC23283CE
:100CF0003A8689ED92469307000301476C08FC860B
:100D0000FD3DF2506254D25421618280AA8436841F
:100D1000AE8791CA294701446317E30063D50500F4
:100D2000B307B04005448646A30901021307310307
:100D3000938666FC36C49A853E8532CA3AC81AC67E
:100D40003EC0EFF06FBAA546824732434247524653
:100D500063D4A600A2463695130505039306F7FF54
:100D6000A30FA7FE9A853E8532CC3ACA1AC83EC662
:100D700036C0EFF0AFB4B24742435247624663F920
:100D8000670401CC29CA9247898BB1C79305D00269
:100D9000268532C40D3522467D169247918B95C328
:100DA00006479307100632C4930500032685631E89
:100DB000F7021135930580072685F53B2246090485
:100DC00079161647924682452685153D229515BF10
:100DD000AA8702478DB782469307D0020144A38FAA
:100DE000F6FE9307E7FF3EC04DBFF1339305800544
:100DF000E1B70145828001458280130181FD22D047
:100E000026CE06D22AC4AE82328402C681448385AD
:100E1000020089EDA24781C781453E85693B92501A
:100E200002542685F2441301810282809307500206
:100E30006388F500224516C88504B53BC24239A82F
:100E40008387120013871200639CB7002245930525
:100E500050023AC88D3342478504BA82850245BFA5
:100E6000D5DB9306B0026389D70463C8F600930606
:100E700030026386D704814705A09306D002638AB7
:100E8000D70093060003E398D7FE13872200894713
:100E900021A0138722008547830607001306B002AE
:100EA0006383C6046341D60213063002638BC60215
:100EB000BA820145A54681A0138722006DBF138722
:100EC00022009147D1BF1306D0026389C6001306E2
:100ED0000003E39FC6FC93E7270031A00507854781
:100EE000C1BF93E747000507E1B713162500329508
:100EF00006053A95850203860200130706FD9375E1
:100F0000F70FE3F4B6FE1307E0029946631EE6000E
:100F100085028146A54503860200130606FD137768
:100F2000F60F63F5E50236C6038702001306A00636
:100F3000630DC70A6343E6021306C0046307C70ACA
:100F400013068006630CC70881452DA81397260059
:100F5000BA968606B29685027DBF130640076306E1
:100F6000C7081306A0076302C7081306C006814519
:100F7000631AC700038612008D456314E6008502DC
:100F800091458502038602009303000613071006AD
:100F900063C4C300130710049303700663C4C3063D
:100FA00093035006635376189303700463C1C3041C
:100FB00093055004635BB61613073004E310E6EAAA
:100FC00018409303440016CA230CE1001EC8A30C6A
:100FD00001000147BE862A862C0849A80386120014
:100FE0008145E311E6FA890271BF8502B1BF93061C
:100FF0003006E307D6FC63CEC6069306800563037E
:10100000D602A9BD930630076304D60463CBC6029B
:101010009306F0066302D60E9306000793E7470097
:10102000E31ED6E29146639FD50A930384000C40E9
:10103000504016CA3AC23EC01EC8AA870147C146E0
:10104000B9A0930650076308D6069306800745BFEC
:101050001840B7160000930344009385862811C3F7
:10106000BA85324716CA1EC8BE862A862245413E28
:101070000DA091466394D502930384000C40504028
:1010800016CA3AC23EC01EC8AA870547A9462245CD
:101090008D33C243AA941E84D242C9B3B2460C40D7
:1010A00016C836C23AC011042A8785462946224509
:1010B0001539AA9461B39146639DD50093038400CA
:1010C0000C40504016CA3AC23EC01EC8AA8701470B
:1010D00075BFB2460C4016C836C23AC011042A8702
:1010E0008146E9B7B24616C80C40414636C23AC0FE
:1010F00011042A87814665BF9146639ED5009303FC
:1011000084000C40504016CA3AC23EC01EC8AA878E
:101110000147A146ADBFB2460C4016C836C23AC020
:1011200011042A878146214659B70C4013068400D2
:1011300040403AC22A87224532C83EC02286B6873E
:10114000A94616CA4D39AA944244B9B71301C1FD44
:101150002EC832CAAA851008014506C636CC3ACE3A
:101160003ED032C05939B240130141028280B3C728
:10117000A5008D8B3307C50081E78D4763E7C70264
:10118000AA87637EE50A942185078505A38FD7FE8C
:10119000E3EBE7FE8280942185078505A38FD7FEC8
:1011A000E3EBE7FE02441101828093763500AA87C3
:1011B00089CA942185078505A38FD7FE93F637004A
:1011C000C5BF9376C7FF138606FE63F5C706711188
:1011D00022C0C04903A3050083A38500C0CB804D76
:1011E00023A0670003A3450080CFC04D23A2670062
:1011F00083A2C50003A3050193854502C0CF03A4C4
:10120000C5FF23A4770023A6570023A86700938770
:10121000470223AE87FEE3EEC7FAE3F3D7F8904127
:101220009107910523AEC7FECDBF9041910791056F
:1012300023AEC7FEE3EBD7FEE3E7E7F482808280CC
:101240006000000003000000180000003F065B4F34
:10125000666D7D077F6F000053797374656D436C15
:101260006B3A2025640D0A004368697049443A20AE
:10127000253038780D0A00000008040C020A060E1A
:101280000109050D030B070F286E756C6C29000012
:101290000102030405060708010203040506070806
:1012A000006CDC020204060804080C100810182068
:1012B000102030402040608001020304050607082A
:0812C000010203040506070802
:00000001FF
